7200                        20211215 BCGSP00521                                                                                                   0
720112345678920200001DOE                           JOHN                       1954032330000000000                                                 0
7201123456789202000021738 27TH AVE                 COQUITLAM                  BCV7N 1A2                                                           0
7201123456789202000220001010101010101010010204957                      BCGS                                                                       0
720112345678920200117000000000                                                                                                              11700 0
720112345678920200213000000000                                                                                                              21300 0
720112345678920200214000000000                                                                                                              21400 0
720112345678920200236000030257                                                                                                              23600 0
720112345678920200301000007637                                                                                                              30100 0
720112345678920200303000000000                                                                                                              30300 0
720112345678920200305000000000                                                                                                              30400 0
720112345678920200306000000000                                                                                                              30600 0
720112345678920200316000000000                                                                                                              31600 0
720112345678920200318000000000                                                                                                              31800 0
720112345678920200324000000000                                                                                                              32400 0
720112345678920200367000000000                                                                                                              30500 0
72011234567892020A030N00000000                                                                                                                    0
7202                        20211215 BCGSP00521      00000018                                                                                     0
